{
  "_format": "hh-sol-artifact-1",
  "contractName": "FODNFT",
  "sourceName": "contracts/FODNFT.sol",
  "abi": [
    {
      "inputs": [],
      "stateMutability": "nonpayable",
      "type": "constructor"
    },
    {
      "anonymous": false,
      "inputs": [
        {
          "indexed": true,
          "internalType": "address",
          "name": "account",
          "type": "address"
        },
        {
          "indexed": true,
          "internalType": "address",
          "name": "operator",
          "type": "address"
        },
        {
          "indexed": false,
          "internalType": "bool",
          "name": "approved",
          "type": "bool"
        }
      ],
      "name": "ApprovalForAll",
      "type": "event"
    },
    {
      "anonymous": false,
      "inputs": [
        {
          "indexed": true,
          "internalType": "address",
          "name": "previousOwner",
          "type": "address"
        },
        {
          "indexed": true,
          "internalType": "address",
          "name": "newOwner",
          "type": "address"
        }
      ],
      "name": "OwnershipTransferred",
      "type": "event"
    },
    {
      "anonymous": false,
      "inputs": [
        {
          "indexed": true,
          "internalType": "address",
          "name": "operator",
          "type": "address"
        },
        {
          "indexed": true,
          "internalType": "address",
          "name": "from",
          "type": "address"
        },
        {
          "indexed": true,
          "internalType": "address",
          "name": "to",
          "type": "address"
        },
        {
          "indexed": false,
          "internalType": "uint256[]",
          "name": "ids",
          "type": "uint256[]"
        },
        {
          "indexed": false,
          "internalType": "uint256[]",
          "name": "values",
          "type": "uint256[]"
        }
      ],
      "name": "TransferBatch",
      "type": "event"
    },
    {
      "anonymous": false,
      "inputs": [
        {
          "indexed": true,
          "internalType": "address",
          "name": "operator",
          "type": "address"
        },
        {
          "indexed": true,
          "internalType": "address",
          "name": "from",
          "type": "address"
        },
        {
          "indexed": true,
          "internalType": "address",
          "name": "to",
          "type": "address"
        },
        {
          "indexed": false,
          "internalType": "uint256",
          "name": "id",
          "type": "uint256"
        },
        {
          "indexed": false,
          "internalType": "uint256",
          "name": "value",
          "type": "uint256"
        }
      ],
      "name": "TransferSingle",
      "type": "event"
    },
    {
      "anonymous": false,
      "inputs": [
        {
          "indexed": false,
          "internalType": "string",
          "name": "value",
          "type": "string"
        },
        {
          "indexed": true,
          "internalType": "uint256",
          "name": "id",
          "type": "uint256"
        }
      ],
      "name": "URI",
      "type": "event"
    },
    {
      "inputs": [],
      "name": "MAX_PER_WALLET",
      "outputs": [
        {
          "internalType": "uint256",
          "name": "",
          "type": "uint256"
        }
      ],
      "stateMutability": "view",
      "type": "function"
    },
    {
      "inputs": [],
      "name": "MAX_SUPPLY_ORDINARY",
      "outputs": [
        {
          "internalType": "uint256",
          "name": "",
          "type": "uint256"
        }
      ],
      "stateMutability": "view",
      "type": "function"
    },
    {
      "inputs": [],
      "name": "MAX_SUPPLY_PRESTIGE",
      "outputs": [
        {
          "internalType": "uint256",
          "name": "",
          "type": "uint256"
        }
      ],
      "stateMutability": "view",
      "type": "function"
    },
    {
      "inputs": [],
      "name": "MINT_PRICE",
      "outputs": [
        {
          "internalType": "uint256",
          "name": "",
          "type": "uint256"
        }
      ],
      "stateMutability": "view",
      "type": "function"
    },
    {
      "inputs": [],
      "name": "TOKEN_ID_ORDINARY",
      "outputs": [
        {
          "internalType": "uint256",
          "name": "",
          "type": "uint256"
        }
      ],
      "stateMutability": "view",
      "type": "function"
    },
    {
      "inputs": [],
      "name": "TOKEN_ID_PRESTIGE",
      "outputs": [
        {
          "internalType": "uint256",
          "name": "",
          "type": "uint256"
        }
      ],
      "stateMutability": "view",
      "type": "function"
    },
    {
      "inputs": [
        {
          "internalType": "address",
          "name": "",
          "type": "address"
        }
      ],
      "name": "_owners",
      "outputs": [
        {
          "internalType": "uint256",
          "name": "",
          "type": "uint256"
        }
      ],
      "stateMutability": "view",
      "type": "function"
    },
    {
      "inputs": [
        {
          "internalType": "address",
          "name": "account",
          "type": "address"
        },
        {
          "internalType": "uint256",
          "name": "id",
          "type": "uint256"
        }
      ],
      "name": "balanceOf",
      "outputs": [
        {
          "internalType": "uint256",
          "name": "",
          "type": "uint256"
        }
      ],
      "stateMutability": "view",
      "type": "function"
    },
    {
      "inputs": [
        {
          "internalType": "address[]",
          "name": "accounts",
          "type": "address[]"
        },
        {
          "internalType": "uint256[]",
          "name": "ids",
          "type": "uint256[]"
        }
      ],
      "name": "balanceOfBatch",
      "outputs": [
        {
          "internalType": "uint256[]",
          "name": "",
          "type": "uint256[]"
        }
      ],
      "stateMutability": "view",
      "type": "function"
    },
    {
      "inputs": [
        {
          "internalType": "uint256",
          "name": "price",
          "type": "uint256"
        }
      ],
      "name": "changePrice",
      "outputs": [],
      "stateMutability": "nonpayable",
      "type": "function"
    },
    {
      "inputs": [
        {
          "internalType": "address",
          "name": "user",
          "type": "address"
        }
      ],
      "name": "getLastMintedRarity",
      "outputs": [
        {
          "internalType": "uint256",
          "name": "",
          "type": "uint256"
        }
      ],
      "stateMutability": "view",
      "type": "function"
    },
    {
      "inputs": [
        {
          "internalType": "address",
          "name": "account",
          "type": "address"
        },
        {
          "internalType": "address",
          "name": "operator",
          "type": "address"
        }
      ],
      "name": "isApprovedForAll",
      "outputs": [
        {
          "internalType": "bool",
          "name": "",
          "type": "bool"
        }
      ],
      "stateMutability": "view",
      "type": "function"
    },
    {
      "inputs": [
        {
          "internalType": "address",
          "name": "",
          "type": "address"
        }
      ],
      "name": "lastMintedRarity",
      "outputs": [
        {
          "internalType": "uint256",
          "name": "",
          "type": "uint256"
        }
      ],
      "stateMutability": "view",
      "type": "function"
    },
    {
      "inputs": [
        {
          "internalType": "uint256",
          "name": "amount",
          "type": "uint256"
        }
      ],
      "name": "mintPack",
      "outputs": [
        {
          "internalType": "uint256",
          "name": "",
          "type": "uint256"
        }
      ],
      "stateMutability": "payable",
      "type": "function"
    },
    {
      "inputs": [],
      "name": "owner",
      "outputs": [
        {
          "internalType": "address",
          "name": "",
          "type": "address"
        }
      ],
      "stateMutability": "view",
      "type": "function"
    },
    {
      "inputs": [],
      "name": "renounceOwnership",
      "outputs": [],
      "stateMutability": "nonpayable",
      "type": "function"
    },
    {
      "inputs": [
        {
          "internalType": "address",
          "name": "from",
          "type": "address"
        },
        {
          "internalType": "address",
          "name": "to",
          "type": "address"
        },
        {
          "internalType": "uint256[]",
          "name": "ids",
          "type": "uint256[]"
        },
        {
          "internalType": "uint256[]",
          "name": "amounts",
          "type": "uint256[]"
        },
        {
          "internalType": "bytes",
          "name": "data",
          "type": "bytes"
        }
      ],
      "name": "safeBatchTransferFrom",
      "outputs": [],
      "stateMutability": "nonpayable",
      "type": "function"
    },
    {
      "inputs": [
        {
          "internalType": "address",
          "name": "from",
          "type": "address"
        },
        {
          "internalType": "address",
          "name": "to",
          "type": "address"
        },
        {
          "internalType": "uint256",
          "name": "id",
          "type": "uint256"
        },
        {
          "internalType": "uint256",
          "name": "amount",
          "type": "uint256"
        },
        {
          "internalType": "bytes",
          "name": "data",
          "type": "bytes"
        }
      ],
      "name": "safeTransferFrom",
      "outputs": [],
      "stateMutability": "nonpayable",
      "type": "function"
    },
    {
      "inputs": [
        {
          "internalType": "address",
          "name": "operator",
          "type": "address"
        },
        {
          "internalType": "bool",
          "name": "approved",
          "type": "bool"
        }
      ],
      "name": "setApprovalForAll",
      "outputs": [],
      "stateMutability": "nonpayable",
      "type": "function"
    },
    {
      "inputs": [
        {
          "internalType": "string",
          "name": "newuri",
          "type": "string"
        }
      ],
      "name": "setURI",
      "outputs": [],
      "stateMutability": "nonpayable",
      "type": "function"
    },
    {
      "inputs": [],
      "name": "supplyOrdinary",
      "outputs": [
        {
          "internalType": "uint256",
          "name": "",
          "type": "uint256"
        }
      ],
      "stateMutability": "view",
      "type": "function"
    },
    {
      "inputs": [],
      "name": "supplyPrestige",
      "outputs": [
        {
          "internalType": "uint256",
          "name": "",
          "type": "uint256"
        }
      ],
      "stateMutability": "view",
      "type": "function"
    },
    {
      "inputs": [
        {
          "internalType": "bytes4",
          "name": "interfaceId",
          "type": "bytes4"
        }
      ],
      "name": "supportsInterface",
      "outputs": [
        {
          "internalType": "bool",
          "name": "",
          "type": "bool"
        }
      ],
      "stateMutability": "view",
      "type": "function"
    },
    {
      "inputs": [
        {
          "internalType": "address",
          "name": "newOwner",
          "type": "address"
        }
      ],
      "name": "transferOwnership",
      "outputs": [],
      "stateMutability": "nonpayable",
      "type": "function"
    },
    {
      "inputs": [
        {
          "internalType": "uint256",
          "name": "newLimit",
          "type": "uint256"
        }
      ],
      "name": "updateMaxPerWallet",
      "outputs": [],
      "stateMutability": "nonpayable",
      "type": "function"
    },
    {
      "inputs": [
        {
          "internalType": "uint256",
          "name": "_id",
          "type": "uint256"
        }
      ],
      "name": "uri",
      "outputs": [
        {
          "internalType": "string",
          "name": "",
          "type": "string"
        }
      ],
      "stateMutability": "view",
      "type": "function"
    },
    {
      "inputs": [],
      "name": "withdraw",
      "outputs": [],
      "stateMutability": "nonpayable",
      "type": "function"
    }
  ],
  "bytecode": "0x6080604052600560045564e8d4a51000600555600160065560016007553480156200002957600080fd5b506040518060a001604052806062815260200162004ba8606291396200005581620000c560201b60201c565b50620000766200006a620000e160201b60201c565b620000e960201b60201c565b6200009a3360018060405180602001604052806000815250620001af60201b60201c565b620000bf336002600160405180602001604052806000815250620001af60201b60201c565b62000de8565b8060029080519060200190620000dd9291906200069d565b5050565b600033905090565b6000600360009054906101000a900473ffffffffffffffffffffffffffffffffffffffff16905081600360006101000a81548173ffffffffffffffffffffffffffffffffffffffff021916908373ffffffffffffffffffffffffffffffffffffffff1602179055508173ffffffffffffffffffffffffffffffffffffffff168173ffffffffffffffffffffffffffffffffffffffff167f8be0079c531659141344cd1fd0a4f28419497f9722a3daafe3b4186f6b6457e060405160405180910390a35050565b600073ffffffffffffffffffffffffffffffffffffffff168473ffffffffffffffffffffffffffffffffffffffff16141562000222576040517f08c379a0000000000000000000000000000000000000000000000000000000008152600401620002199062000953565b60405180910390fd5b600062000234620000e160201b60201c565b9050600062000249856200039760201b60201c565b905060006200025e856200039760201b60201c565b905062000277836000898585896200046060201b60201c565b8460008088815260200190815260200160002060008973ffffffffffffffffffffffffffffffffffffffff1673ffffffffffffffffffffffffffffffffffffffff1681526020019081526020016000206000828254620002d8919062000a06565b925050819055508673ffffffffffffffffffffffffffffffffffffffff16600073ffffffffffffffffffffffffffffffffffffffff168473ffffffffffffffffffffffffffffffffffffffff167fc3d58168c5ae7397731d063d5bbf3d657854427343f4c083240f7aacaa2d0f6289896040516200035892919062000997565b60405180910390a462000377836000898585896200046860201b60201c565b6200038e836000898989896200047060201b60201c565b50505050505050565b60606000600167ffffffffffffffff811115620003dd577f4e487b7100000000000000000000000000000000000000000000000000000000600052604160045260246000fd5b6040519080825280602002602001820160405280156200040c5781602001602082028036833780820191505090505b50905082816000815181106200044b577f4e487b7100000000000000000000000000000000000000000000000000000000600052603260045260246000fd5b60200260200101818152505080915050919050565b505050505050565b505050505050565b6200049c8473ffffffffffffffffffffffffffffffffffffffff166200067a60201b620011611760201c565b1562000672578373ffffffffffffffffffffffffffffffffffffffff1663f23a6e6187878686866040518663ffffffff1660e01b8152600401620004e5959493929190620008a9565b602060405180830381600087803b1580156200050057600080fd5b505af19250505080156200053457506040513d601f19601f8201168201806040525081019062000531919062000764565b60015b620005e6576200054362000bfc565b806308c379a01415620005a757506200055b62000d2c565b80620005685750620005a9565b806040517f08c379a00000000000000000000000000000000000000000000000000000000081526004016200059e91906200090d565b60405180910390fd5b505b6040517f08c379a0000000000000000000000000000000000000000000000000000000008152600401620005dd9062000975565b60405180910390fd5b63f23a6e6160e01b7bffffffffffffffffffffffffffffffffffffffffffffffffffffffff1916817bffffffffffffffffffffffffffffffffffffffffffffffffffffffff19161462000670576040517f08c379a0000000000000000000000000000000000000000000000000000000008152600401620006679062000931565b60405180910390fd5b505b505050505050565b6000808273ffffffffffffffffffffffffffffffffffffffff163b119050919050565b828054620006ab9062000b03565b90600052602060002090601f016020900481019282620006cf57600085556200071b565b82601f10620006ea57805160ff19168380011785556200071b565b828001600101855582156200071b579182015b828111156200071a578251825591602001919060010190620006fd565b5b5090506200072a91906200072e565b5090565b5b80821115620007495760008160009055506001016200072f565b5090565b6000815190506200075e8162000dce565b92915050565b6000602082840312156200077757600080fd5b600062000787848285016200074d565b91505092915050565b6200079b8162000a63565b82525050565b6000620007ae82620009ce565b620007ba8185620009e4565b9350620007cc81856020860162000acd565b620007d78162000c21565b840191505092915050565b6000620007ef82620009d9565b620007fb8185620009f5565b93506200080d81856020860162000acd565b620008188162000c21565b840191505092915050565b600062000832602883620009f5565b91506200083f8262000c3f565b604082019050919050565b600062000859602183620009f5565b9150620008668262000c8e565b604082019050919050565b600062000880603483620009f5565b91506200088d8262000cdd565b604082019050919050565b620008a38162000ac3565b82525050565b600060a082019050620008c0600083018862000790565b620008cf602083018762000790565b620008de604083018662000898565b620008ed606083018562000898565b8181036080830152620009018184620007a1565b90509695505050505050565b60006020820190508181036000830152620009298184620007e2565b905092915050565b600060208201905081810360008301526200094c8162000823565b9050919050565b600060208201905081810360008301526200096e816200084a565b9050919050565b60006020820190508181036000830152620009908162000871565b9050919050565b6000604082019050620009ae600083018562000898565b620009bd602083018462000898565b9392505050565b6000604051905090565b600081519050919050565b600081519050919050565b600082825260208201905092915050565b600082825260208201905092915050565b600062000a138262000ac3565b915062000a208362000ac3565b9250827fffffffffffffffffffffffffffffffffffffffffffffffffffffffffffffffff0382111562000a585762000a5762000b6f565b5b828201905092915050565b600062000a708262000aa3565b9050919050565b60007fffffffff0000000000000000000000000000000000000000000000000000000082169050919050565b600073ffffffffffffffffffffffffffffffffffffffff82169050919050565b6000819050919050565b60005b8381101562000aed57808201518184015260208101905062000ad0565b8381111562000afd576000848401525b50505050565b6000600282049050600182168062000b1c57607f821691505b6020821081141562000b335762000b3262000b9e565b5b50919050565b62000b448262000c21565b810181811067ffffffffffffffff8211171562000b665762000b6562000bcd565b5b80604052505050565b7f4e487b7100000000000000000000000000000000000000000000000000000000600052601160045260246000fd5b7f4e487b7100000000000000000000000000000000000000000000000000000000600052602260045260246000fd5b7f4e487b7100000000000000000000000000000000000000000000000000000000600052604160045260246000fd5b600060033d111562000c1e5760046000803e62000c1b60005162000c32565b90505b90565b6000601f19601f8301169050919050565b60008160e01c9050919050565b7f455243313135353a204552433131353552656365697665722072656a6563746560008201527f6420746f6b656e73000000000000000000000000000000000000000000000000602082015250565b7f455243313135353a206d696e7420746f20746865207a65726f2061646472657360008201527f7300000000000000000000000000000000000000000000000000000000000000602082015250565b7f455243313135353a207472616e7366657220746f206e6f6e2d4552433131353560008201527f526563656976657220696d706c656d656e746572000000000000000000000000602082015250565b600060443d101562000d3e5762000dcb565b62000d48620009c4565b60043d036004823e80513d602482011167ffffffffffffffff8211171562000d7257505062000dcb565b808201805167ffffffffffffffff81111562000d92575050505062000dcb565b80602083010160043d03850181111562000db157505050505062000dcb565b62000dc28260200185018662000b39565b82955050505050505b90565b62000dd98162000a77565b811462000de557600080fd5b50565b613db08062000df86000396000f3fe60806040526004361061019b5760003560e01c80638fefb0fe116100ec578063dbb689941161008a578063f22d669c11610064578063f22d669c146105e2578063f242432a1461060d578063f2fde38b14610636578063fecfda491461065f5761019b565b8063dbb689941461054f578063e985e9c51461057a578063ed070767146105b75761019b565b8063a9355cfc116100c6578063a9355cfc1461048c578063bf3a5c02146104b7578063c002d23d146104f4578063d45765e21461051f5761019b565b80638fefb0fe1461040f578063a22cb4651461043a578063a2b40d19146104635761019b565b80632eb2c2d611610159578063715018a611610133578063715018a6146103655780637c9980f31461037c57806388f3cd14146103a75780638da5cb5b146103e45761019b565b80632eb2c2d6146102e85780633ccfd60b146103115780634e1273f4146103285761019b565b8062fdd58e146101a057806301ffc9a7146101dd57806302fe53051461021a5780630c702af2146102435780630e89341c146102805780630f2cdd6c146102bd575b600080fd5b3480156101ac57600080fd5b506101c760048036038101906101c29190612972565b610688565b6040516101d49190613284565b60405180910390f35b3480156101e957600080fd5b5061020460048036038101906101ff9190612a1a565b610751565b6040516102119190613047565b60405180910390f35b34801561022657600080fd5b50610241600480360381019061023c9190612a6c565b610833565b005b34801561024f57600080fd5b5061026a60048036038101906102659190612783565b610847565b6040516102779190613284565b60405180910390f35b34801561028c57600080fd5b506102a760048036038101906102a29190612aad565b61085f565b6040516102b49190613062565b60405180910390f35b3480156102c957600080fd5b506102d2610890565b6040516102df9190613284565b60405180910390f35b3480156102f457600080fd5b5061030f600480360381019061030a91906127e8565b610896565b005b34801561031d57600080fd5b50610326610937565b005b34801561033457600080fd5b5061034f600480360381019061034a91906129ae565b61098e565b60405161035c9190612fee565b60405180910390f35b34801561037157600080fd5b5061037a610b3f565b005b34801561038857600080fd5b50610391610b53565b60405161039e9190613284565b60405180910390f35b3480156103b357600080fd5b506103ce60048036038101906103c99190612783565b610b59565b6040516103db9190613284565b60405180910390f35b3480156103f057600080fd5b506103f9610ba2565b6040516104069190612f11565b60405180910390f35b34801561041b57600080fd5b50610424610bcc565b6040516104319190613284565b60405180910390f35b34801561044657600080fd5b50610461600480360381019061045c9190612936565b610bd1565b005b34801561046f57600080fd5b5061048a60048036038101906104859190612aad565b610be7565b005b34801561049857600080fd5b506104a1610bf9565b6040516104ae9190613284565b60405180910390f35b3480156104c357600080fd5b506104de60048036038101906104d99190612783565b610bff565b6040516104eb9190613284565b60405180910390f35b34801561050057600080fd5b50610509610c17565b6040516105169190613284565b60405180910390f35b61053960048036038101906105349190612aad565b610c1d565b6040516105469190613284565b60405180910390f35b34801561055b57600080fd5b50610564610f86565b6040516105719190613284565b60405180910390f35b34801561058657600080fd5b506105a1600480360381019061059c91906127ac565b610f8c565b6040516105ae9190613047565b60405180910390f35b3480156105c357600080fd5b506105cc611020565b6040516105d99190613284565b60405180910390f35b3480156105ee57600080fd5b506105f7611025565b6040516106049190613284565b60405180910390f35b34801561061957600080fd5b50610634600480360381019061062f91906128a7565b61102a565b005b34801561064257600080fd5b5061065d60048036038101906106589190612783565b6110cb565b005b34801561066b57600080fd5b5061068660048036038101906106819190612aad565b61114f565b005b60008073ffffffffffffffffffffffffffffffffffffffff168373ffffffffffffffffffffffffffffffffffffffff1614156106f9576040517f08c379a00000000000000000000000000000000000000000000000000000000081526004016106f090613124565b60405180910390fd5b60008083815260200190815260200160002060008473ffffffffffffffffffffffffffffffffffffffff1673ffffffffffffffffffffffffffffffffffffffff16815260200190815260200160002054905092915050565b60007fd9b67a26000000000000000000000000000000000000000000000000000000007bffffffffffffffffffffffffffffffffffffffffffffffffffffffff1916827bffffffffffffffffffffffffffffffffffffffffffffffffffffffff1916148061081c57507f0e89341c000000000000000000000000000000000000000000000000000000007bffffffffffffffffffffffffffffffffffffffffffffffffffffffff1916827bffffffffffffffffffffffffffffffffffffffffffffffffffffffff1916145b8061082c575061082b82611184565b5b9050919050565b61083b6111ee565b6108448161126c565b50565b60096020528060005260406000206000915090505481565b606061086a82611286565b60405160200161087a9190612eb8565b6040516020818303038152906040529050919050565b60045481565b61089e6113aa565b73ffffffffffffffffffffffffffffffffffffffff168573ffffffffffffffffffffffffffffffffffffffff1614806108e457506108e3856108de6113aa565b610f8c565b5b610923576040517f08c379a000000000000000000000000000000000000000000000000000000000815260040161091a90613144565b60405180910390fd5b61093085858585856113b2565b5050505050565b61093f6111ee565b60004790503373ffffffffffffffffffffffffffffffffffffffff166108fc829081150290604051600060405180830381858888f1935050505015801561098a573d6000803e3d6000fd5b5050565b606081518351146109d4576040517f08c379a00000000000000000000000000000000000000000000000000000000081526004016109cb90613204565b60405180910390fd5b6000835167ffffffffffffffff811115610a17577f4e487b7100000000000000000000000000000000000000000000000000000000600052604160045260246000fd5b604051908082528060200260200182016040528015610a455781602001602082028036833780820191505090505b50905060005b8451811015610b3457610ade858281518110610a90577f4e487b7100000000000000000000000000000000000000000000000000000000600052603260045260246000fd5b6020026020010151858381518110610ad1577f4e487b7100000000000000000000000000000000000000000000000000000000600052603260045260246000fd5b6020026020010151610688565b828281518110610b17577f4e487b7100000000000000000000000000000000000000000000000000000000600052603260045260246000fd5b60200260200101818152505080610b2d906135ec565b9050610a4b565b508091505092915050565b610b476111ee565b610b516000611720565b565b61038481565b6000600960008373ffffffffffffffffffffffffffffffffffffffff1673ffffffffffffffffffffffffffffffffffffffff168152602001908152602001600020549050919050565b6000600360009054906101000a900473ffffffffffffffffffffffffffffffffffffffff16905090565b600181565b610be3610bdc6113aa565b83836117e6565b5050565b610bef6111ee565b8060058190555050565b60065481565b60086020528060005260406000206000915090505481565b60055481565b6000808211610c61576040517f08c379a0000000000000000000000000000000000000000000000000000000008152600401610c58906130e4565b60405180910390fd5b60045482600860003373ffffffffffffffffffffffffffffffffffffffff1673ffffffffffffffffffffffffffffffffffffffff16815260200190815260200160002054610caf9190613423565b1115610cf0576040517f08c379a0000000000000000000000000000000000000000000000000000000008152600401610ce7906130c4565b60405180910390fd5b600060024244604051602001610d07929190612ee5565b6040516020818303038152906040528051906020012060001c610d2a919061363f565b90506000811415610e0f5760055483610d439190613479565b3414610d84576040517f08c379a0000000000000000000000000000000000000000000000000000000008152600401610d7b906131c4565b60405180910390fd5b606483600654610d949190613423565b1115610dd5576040517f08c379a0000000000000000000000000000000000000000000000000000000008152600401610dcc90613084565b60405180910390fd5b610df13360018560405180602001604052806000815250611953565b8260066000828254610e039190613423565b92505081905550610ee6565b60055483610e1d9190613479565b3414610e5e576040517f08c379a0000000000000000000000000000000000000000000000000000000008152600401610e55906131c4565b60405180910390fd5b61038483600754610e6f9190613423565b1115610eb0576040517f08c379a0000000000000000000000000000000000000000000000000000000008152600401610ea790613084565b60405180910390fd5b610ecc3360028560405180602001604052806000815250611953565b8260076000828254610ede9190613423565b925050819055505b82600860003373ffffffffffffffffffffffffffffffffffffffff1673ffffffffffffffffffffffffffffffffffffffff1681526020019081526020016000206000828254610f359190613423565b9250508190555080600960003373ffffffffffffffffffffffffffffffffffffffff1673ffffffffffffffffffffffffffffffffffffffff1681526020019081526020016000208190555050919050565b60075481565b6000600160008473ffffffffffffffffffffffffffffffffffffffff1673ffffffffffffffffffffffffffffffffffffffff16815260200190815260200160002060008373ffffffffffffffffffffffffffffffffffffffff1673ffffffffffffffffffffffffffffffffffffffff16815260200190815260200160002060009054906101000a900460ff16905092915050565b606481565b600281565b6110326113aa565b73ffffffffffffffffffffffffffffffffffffffff168573ffffffffffffffffffffffffffffffffffffffff1614806110785750611077856110726113aa565b610f8c565b5b6110b7576040517f08c379a00000000000000000000000000000000000000000000000000000000081526004016110ae90613144565b60405180910390fd5b6110c48585858585611b04565b5050505050565b6110d36111ee565b600073ffffffffffffffffffffffffffffffffffffffff168173ffffffffffffffffffffffffffffffffffffffff161415611143576040517f08c379a000000000000000000000000000000000000000000000000000000000815260040161113a90613104565b60405180910390fd5b61114c81611720565b50565b6111576111ee565b8060048190555050565b6000808273ffffffffffffffffffffffffffffffffffffffff163b119050919050565b60007f01ffc9a7000000000000000000000000000000000000000000000000000000007bffffffffffffffffffffffffffffffffffffffffffffffffffffffff1916827bffffffffffffffffffffffffffffffffffffffffffffffffffffffff1916149050919050565b6111f66113aa565b73ffffffffffffffffffffffffffffffffffffffff16611214610ba2565b73ffffffffffffffffffffffffffffffffffffffff161461126a576040517f08c379a0000000000000000000000000000000000000000000000000000000008152600401611261906131a4565b60405180910390fd5b565b806002908051906020019061128292919061247b565b5050565b60606000600161129584611da0565b01905060008167ffffffffffffffff8111156112da577f4e487b7100000000000000000000000000000000000000000000000000000000600052604160045260246000fd5b6040519080825280601f01601f19166020018201604052801561130c5781602001600182028036833780820191505090505b509050600082602001820190505b60011561139f578080600190039150507f3031323334353637383961626364656600000000000000000000000000000000600a86061a8153600a8581611389577f4e487b7100000000000000000000000000000000000000000000000000000000600052601260045260246000fd5b049450600085141561139a5761139f565b61131a565b819350505050919050565b600033905090565b81518351146113f6576040517f08c379a00000000000000000000000000000000000000000000000000000000081526004016113ed90613224565b60405180910390fd5b600073ffffffffffffffffffffffffffffffffffffffff168473ffffffffffffffffffffffffffffffffffffffff161415611466576040517f08c379a000000000000000000000000000000000000000000000000000000000815260040161145d90613164565b60405180910390fd5b60006114706113aa565b9050611480818787878787611fd7565b60005b845181101561167d5760008582815181106114c7577f4e487b7100000000000000000000000000000000000000000000000000000000600052603260045260246000fd5b60200260200101519050600085838151811061150c577f4e487b7100000000000000000000000000000000000000000000000000000000600052603260045260246000fd5b60200260200101519050600080600084815260200190815260200160002060008b73ffffffffffffffffffffffffffffffffffffffff1673ffffffffffffffffffffffffffffffffffffffff168152602001908152602001600020549050818110156115ad576040517f08c379a00000000000000000000000000000000000000000000000000000000081526004016115a490613184565b60405180910390fd5b81810360008085815260200190815260200160002060008c73ffffffffffffffffffffffffffffffffffffffff1673ffffffffffffffffffffffffffffffffffffffff168152602001908152602001600020819055508160008085815260200190815260200160002060008b73ffffffffffffffffffffffffffffffffffffffff1673ffffffffffffffffffffffffffffffffffffffff16815260200190815260200160002060008282546116629190613423565b9250508190555050505080611676906135ec565b9050611483565b508473ffffffffffffffffffffffffffffffffffffffff168673ffffffffffffffffffffffffffffffffffffffff168273ffffffffffffffffffffffffffffffffffffffff167f4a39dc06d4c0dbc64b70af90fd698a233a518aa5d07e595d983b8c0526c8f7fb87876040516116f4929190613010565b60405180910390a461170a818787878787611fdf565b611718818787878787611fe7565b505050505050565b6000600360009054906101000a900473ffffffffffffffffffffffffffffffffffffffff16905081600360006101000a81548173ffffffffffffffffffffffffffffffffffffffff021916908373ffffffffffffffffffffffffffffffffffffffff1602179055508173ffffffffffffffffffffffffffffffffffffffff168173ffffffffffffffffffffffffffffffffffffffff167f8be0079c531659141344cd1fd0a4f28419497f9722a3daafe3b4186f6b6457e060405160405180910390a35050565b8173ffffffffffffffffffffffffffffffffffffffff168373ffffffffffffffffffffffffffffffffffffffff161415611855576040517f08c379a000000000000000000000000000000000000000000000000000000000815260040161184c906131e4565b60405180910390fd5b80600160008573ffffffffffffffffffffffffffffffffffffffff1673ffffffffffffffffffffffffffffffffffffffff16815260200190815260200160002060008473ffffffffffffffffffffffffffffffffffffffff1673ffffffffffffffffffffffffffffffffffffffff16815260200190815260200160002060006101000a81548160ff0219169083151502179055508173ffffffffffffffffffffffffffffffffffffffff168373ffffffffffffffffffffffffffffffffffffffff167f17307eab39ab6107e8899845ad3d59bd9653f200f220920489ca2b5937696c31836040516119469190613047565b60405180910390a3505050565b600073ffffffffffffffffffffffffffffffffffffffff168473ffffffffffffffffffffffffffffffffffffffff1614156119c3576040517f08c379a00000000000000000000000000000000000000000000000000000000081526004016119ba90613244565b60405180910390fd5b60006119cd6113aa565b905060006119da856121ce565b905060006119e7856121ce565b90506119f883600089858589611fd7565b8460008088815260200190815260200160002060008973ffffffffffffffffffffffffffffffffffffffff1673ffffffffffffffffffffffffffffffffffffffff1681526020019081526020016000206000828254611a579190613423565b925050819055508673ffffffffffffffffffffffffffffffffffffffff16600073ffffffffffffffffffffffffffffffffffffffff168473ffffffffffffffffffffffffffffffffffffffff167fc3d58168c5ae7397731d063d5bbf3d657854427343f4c083240f7aacaa2d0f628989604051611ad592919061329f565b60405180910390a4611aec83600089858589611fdf565b611afb83600089898989612294565b50505050505050565b600073ffffffffffffffffffffffffffffffffffffffff168473ffffffffffffffffffffffffffffffffffffffff161415611b74576040517f08c379a0000000000000000000000000000000000000000000000000000000008152600401611b6b90613164565b60405180910390fd5b6000611b7e6113aa565b90506000611b8b856121ce565b90506000611b98856121ce565b9050611ba8838989858589611fd7565b600080600088815260200190815260200160002060008a73ffffffffffffffffffffffffffffffffffffffff1673ffffffffffffffffffffffffffffffffffffffff16815260200190815260200160002054905085811015611c3f576040517f08c379a0000000000000000000000000000000000000000000000000000000008152600401611c3690613184565b60405180910390fd5b85810360008089815260200190815260200160002060008b73ffffffffffffffffffffffffffffffffffffffff1673ffffffffffffffffffffffffffffffffffffffff168152602001908152602001600020819055508560008089815260200190815260200160002060008a73ffffffffffffffffffffffffffffffffffffffff1673ffffffffffffffffffffffffffffffffffffffff1681526020019081526020016000206000828254611cf49190613423565b925050819055508773ffffffffffffffffffffffffffffffffffffffff168973ffffffffffffffffffffffffffffffffffffffff168573ffffffffffffffffffffffffffffffffffffffff167fc3d58168c5ae7397731d063d5bbf3d657854427343f4c083240f7aacaa2d0f628a8a604051611d7192919061329f565b60405180910390a4611d87848a8a86868a611fdf565b611d95848a8a8a8a8a612294565b505050505050505050565b600080600090507a184f03e93ff9f4daa797ed6e38ed64bf6a1f0100000000000000008310611e24577a184f03e93ff9f4daa797ed6e38ed64bf6a1f0100000000000000008381611e1a577f4e487b7100000000000000000000000000000000000000000000000000000000600052601260045260246000fd5b0492506040810190505b6d04ee2d6d415b85acef81000000008310611e87576d04ee2d6d415b85acef81000000008381611e7d577f4e487b7100000000000000000000000000000000000000000000000000000000600052601260045260246000fd5b0492506020810190505b662386f26fc100008310611edc57662386f26fc100008381611ed2577f4e487b7100000000000000000000000000000000000000000000000000000000600052601260045260246000fd5b0492506010810190505b6305f5e1008310611f2b576305f5e1008381611f21577f4e487b7100000000000000000000000000000000000000000000000000000000600052601260045260246000fd5b0492506008810190505b6127108310611f76576127108381611f6c577f4e487b7100000000000000000000000000000000000000000000000000000000600052601260045260246000fd5b0492506004810190505b60648310611fbf5760648381611fb5577f4e487b7100000000000000000000000000000000000000000000000000000000600052601260045260246000fd5b0492506002810190505b600a8310611fce576001810190505b80915050919050565b505050505050565b505050505050565b6120068473ffffffffffffffffffffffffffffffffffffffff16611161565b156121c6578373ffffffffffffffffffffffffffffffffffffffff1663bc197c8187878686866040518663ffffffff1660e01b815260040161204c959493929190612f2c565b602060405180830381600087803b15801561206657600080fd5b505af192505050801561209757506040513d601f19601f820116820180604052508101906120949190612a43565b60015b61213d576120a361372c565b806308c379a0141561210057506120b8613c88565b806120c35750612102565b806040517f08c379a00000000000000000000000000000000000000000000000000000000081526004016120f79190613062565b60405180910390fd5b505b6040517f08c379a000000000000000000000000000000000000000000000000000000000815260040161213490613264565b60405180910390fd5b63bc197c8160e01b7bffffffffffffffffffffffffffffffffffffffffffffffffffffffff1916817bffffffffffffffffffffffffffffffffffffffffffffffffffffffff1916146121c4576040517f08c379a00000000000000000000000000000000000000000000000000000000081526004016121bb906130a4565b60405180910390fd5b505b505050505050565b60606000600167ffffffffffffffff811115612213577f4e487b7100000000000000000000000000000000000000000000000000000000600052604160045260246000fd5b6040519080825280602002602001820160405280156122415781602001602082028036833780820191505090505b509050828160008151811061227f577f4e487b7100000000000000000000000000000000000000000000000000000000600052603260045260246000fd5b60200260200101818152505080915050919050565b6122b38473ffffffffffffffffffffffffffffffffffffffff16611161565b15612473578373ffffffffffffffffffffffffffffffffffffffff1663f23a6e6187878686866040518663ffffffff1660e01b81526004016122f9959493929190612f94565b602060405180830381600087803b15801561231357600080fd5b505af192505050801561234457506040513d601f19601f820116820180604052508101906123419190612a43565b60015b6123ea5761235061372c565b806308c379a014156123ad5750612365613c88565b8061237057506123af565b806040517f08c379a00000000000000000000000000000000000000000000000000000000081526004016123a49190613062565b60405180910390fd5b505b6040517f08c379a00000000000000000000000000000000000000000000000000000000081526004016123e190613264565b60405180910390fd5b63f23a6e6160e01b7bffffffffffffffffffffffffffffffffffffffffffffffffffffffff1916817bffffffffffffffffffffffffffffffffffffffffffffffffffffffff191614612471576040517f08c379a0000000000000000000000000000000000000000000000000000000008152600401612468906130a4565b60405180910390fd5b505b505050505050565b82805461248790613589565b90600052602060002090601f0160209004810192826124a957600085556124f0565b82601f106124c257805160ff19168380011785556124f0565b828001600101855582156124f0579182015b828111156124ef5782518255916020019190600101906124d4565b5b5090506124fd9190612501565b5090565b5b8082111561251a576000816000905550600101612502565b5090565b600061253161252c846132ed565b6132c8565b9050808382526020820190508285602086028201111561255057600080fd5b60005b8581101561258057816125668882612672565b845260208401935060208301925050600181019050612553565b5050509392505050565b600061259d61259884613319565b6132c8565b905080838252602082019050828560208602820111156125bc57600080fd5b60005b858110156125ec57816125d2888261276e565b8452602084019350602083019250506001810190506125bf565b5050509392505050565b600061260961260484613345565b6132c8565b90508281526020810184848401111561262157600080fd5b61262c848285613547565b509392505050565b600061264761264284613376565b6132c8565b90508281526020810184848401111561265f57600080fd5b61266a848285613547565b509392505050565b60008135905061268181613d1e565b92915050565b600082601f83011261269857600080fd5b81356126a884826020860161251e565b91505092915050565b600082601f8301126126c257600080fd5b81356126d284826020860161258a565b91505092915050565b6000813590506126ea81613d35565b92915050565b6000813590506126ff81613d4c565b92915050565b60008151905061271481613d4c565b92915050565b600082601f83011261272b57600080fd5b813561273b8482602086016125f6565b91505092915050565b600082601f83011261275557600080fd5b8135612765848260208601612634565b91505092915050565b60008135905061277d81613d63565b92915050565b60006020828403121561279557600080fd5b60006127a384828501612672565b91505092915050565b600080604083850312156127bf57600080fd5b60006127cd85828601612672565b92505060206127de85828601612672565b9150509250929050565b600080600080600060a0868803121561280057600080fd5b600061280e88828901612672565b955050602061281f88828901612672565b945050604086013567ffffffffffffffff81111561283c57600080fd5b612848888289016126b1565b935050606086013567ffffffffffffffff81111561286557600080fd5b612871888289016126b1565b925050608086013567ffffffffffffffff81111561288e57600080fd5b61289a8882890161271a565b9150509295509295909350565b600080600080600060a086880312156128bf57600080fd5b60006128cd88828901612672565b95505060206128de88828901612672565b94505060406128ef8882890161276e565b93505060606129008882890161276e565b925050608086013567ffffffffffffffff81111561291d57600080fd5b6129298882890161271a565b9150509295509295909350565b6000806040838503121561294957600080fd5b600061295785828601612672565b9250506020612968858286016126db565b9150509250929050565b6000806040838503121561298557600080fd5b600061299385828601612672565b92505060206129a48582860161276e565b9150509250929050565b600080604083850312156129c157600080fd5b600083013567ffffffffffffffff8111156129db57600080fd5b6129e785828601612687565b925050602083013567ffffffffffffffff811115612a0457600080fd5b612a10858286016126b1565b9150509250929050565b600060208284031215612a2c57600080fd5b6000612a3a848285016126f0565b91505092915050565b600060208284031215612a5557600080fd5b6000612a6384828501612705565b91505092915050565b600060208284031215612a7e57600080fd5b600082013567ffffffffffffffff811115612a9857600080fd5b612aa484828501612744565b91505092915050565b600060208284031215612abf57600080fd5b6000612acd8482850161276e565b91505092915050565b6000612ae28383612e83565b60208301905092915050565b612af7816134d3565b82525050565b6000612b08826133b7565b612b1281856133e5565b9350612b1d836133a7565b8060005b83811015612b4e578151612b358882612ad6565b9750612b40836133d8565b925050600181019050612b21565b5085935050505092915050565b612b64816134e5565b82525050565b6000612b75826133c2565b612b7f81856133f6565b9350612b8f818560208601613556565b612b988161374e565b840191505092915050565b6000612bae826133cd565b612bb88185613407565b9350612bc8818560208601613556565b612bd18161374e565b840191505092915050565b6000612be7826133cd565b612bf18185613418565b9350612c01818560208601613556565b80840191505092915050565b6000612c1a601883613407565b9150612c258261376c565b602082019050919050565b6000612c3d602883613407565b9150612c4882613795565b604082019050919050565b6000612c60602683613407565b9150612c6b826137e4565b604082019050919050565b6000612c83603483613407565b9150612c8e82613833565b604082019050919050565b6000612ca6602683613407565b9150612cb182613882565b604082019050919050565b6000612cc9605983613418565b9150612cd4826138d1565b605982019050919050565b6000612cec602a83613407565b9150612cf782613946565b604082019050919050565b6000612d0f602e83613407565b9150612d1a82613995565b604082019050919050565b6000612d32602583613407565b9150612d3d826139e4565b604082019050919050565b6000612d55602a83613407565b9150612d6082613a33565b604082019050919050565b6000612d78600583613418565b9150612d8382613a82565b600582019050919050565b6000612d9b602083613407565b9150612da682613aab565b602082019050919050565b6000612dbe601783613407565b9150612dc982613ad4565b602082019050919050565b6000612de1602983613407565b9150612dec82613afd565b604082019050919050565b6000612e04602983613407565b9150612e0f82613b4c565b604082019050919050565b6000612e27602883613407565b9150612e3282613b9b565b604082019050919050565b6000612e4a602183613407565b9150612e5582613bea565b604082019050919050565b6000612e6d603483613407565b9150612e7882613c39565b604082019050919050565b612e8c8161353d565b82525050565b612e9b8161353d565b82525050565b612eb2612ead8261353d565b613635565b82525050565b6000612ec382612cbc565b9150612ecf8284612bdc565b9150612eda82612d6b565b915081905092915050565b6000612ef18285612ea1565b602082019150612f018284612ea1565b6020820191508190509392505050565b6000602082019050612f266000830184612aee565b92915050565b600060a082019050612f416000830188612aee565b612f4e6020830187612aee565b8181036040830152612f608186612afd565b90508181036060830152612f748185612afd565b90508181036080830152612f888184612b6a565b90509695505050505050565b600060a082019050612fa96000830188612aee565b612fb66020830187612aee565b612fc36040830186612e92565b612fd06060830185612e92565b8181036080830152612fe28184612b6a565b90509695505050505050565b600060208201905081810360008301526130088184612afd565b905092915050565b6000604082019050818103600083015261302a8185612afd565b9050818103602083015261303e8184612afd565b90509392505050565b600060208201905061305c6000830184612b5b565b92915050565b6000602082019050818103600083015261307c8184612ba3565b905092915050565b6000602082019050818103600083015261309d81612c0d565b9050919050565b600060208201905081810360008301526130bd81612c30565b9050919050565b600060208201905081810360008301526130dd81612c53565b9050919050565b600060208201905081810360008301526130fd81612c76565b9050919050565b6000602082019050818103600083015261311d81612c99565b9050919050565b6000602082019050818103600083015261313d81612cdf565b9050919050565b6000602082019050818103600083015261315d81612d02565b9050919050565b6000602082019050818103600083015261317d81612d25565b9050919050565b6000602082019050818103600083015261319d81612d48565b9050919050565b600060208201905081810360008301526131bd81612d8e565b9050919050565b600060208201905081810360008301526131dd81612db1565b9050919050565b600060208201905081810360008301526131fd81612dd4565b9050919050565b6000602082019050818103600083015261321d81612df7565b9050919050565b6000602082019050818103600083015261323d81612e1a565b9050919050565b6000602082019050818103600083015261325d81612e3d565b9050919050565b6000602082019050818103600083015261327d81612e60565b9050919050565b60006020820190506132996000830184612e92565b92915050565b60006040820190506132b46000830185612e92565b6132c16020830184612e92565b9392505050565b60006132d26132e3565b90506132de82826135bb565b919050565b6000604051905090565b600067ffffffffffffffff821115613308576133076136fd565b5b602082029050602081019050919050565b600067ffffffffffffffff821115613334576133336136fd565b5b602082029050602081019050919050565b600067ffffffffffffffff8211156133605761335f6136fd565b5b6133698261374e565b9050602081019050919050565b600067ffffffffffffffff821115613391576133906136fd565b5b61339a8261374e565b9050602081019050919050565b6000819050602082019050919050565b600081519050919050565b600081519050919050565b600081519050919050565b6000602082019050919050565b600082825260208201905092915050565b600082825260208201905092915050565b600082825260208201905092915050565b600081905092915050565b600061342e8261353d565b91506134398361353d565b9250827fffffffffffffffffffffffffffffffffffffffffffffffffffffffffffffffff0382111561346e5761346d613670565b5b828201905092915050565b60006134848261353d565b915061348f8361353d565b9250817fffffffffffffffffffffffffffffffffffffffffffffffffffffffffffffffff04831182151516156134c8576134c7613670565b5b828202905092915050565b60006134de8261351d565b9050919050565b60008115159050919050565b60007fffffffff0000000000000000000000000000000000000000000000000000000082169050919050565b600073ffffffffffffffffffffffffffffffffffffffff82169050919050565b6000819050919050565b82818337600083830152505050565b60005b83811015613574578082015181840152602081019050613559565b83811115613583576000848401525b50505050565b600060028204905060018216806135a157607f821691505b602082108114156135b5576135b46136ce565b5b50919050565b6135c48261374e565b810181811067ffffffffffffffff821117156135e3576135e26136fd565b5b80604052505050565b60006135f78261353d565b91507fffffffffffffffffffffffffffffffffffffffffffffffffffffffffffffffff82141561362a57613629613670565b5b600182019050919050565b6000819050919050565b600061364a8261353d565b91506136558361353d565b9250826136655761366461369f565b5b828206905092915050565b7f4e487b7100000000000000000000000000000000000000000000000000000000600052601160045260246000fd5b7f4e487b7100000000000000000000000000000000000000000000000000000000600052601260045260246000fd5b7f4e487b7100000000000000000000000000000000000000000000000000000000600052602260045260246000fd5b7f4e487b7100000000000000000000000000000000000000000000000000000000600052604160045260246000fd5b600060033d111561374b5760046000803e61374860005161375f565b90505b90565b6000601f19601f8301169050919050565b60008160e01c9050919050565b7f4d696e743a204d617820737570706c7920726561636865640000000000000000600082015250565b7f455243313135353a204552433131353552656365697665722072656a6563746560008201527f6420746f6b656e73000000000000000000000000000000000000000000000000602082015250565b7f657863656564206d617820737570706c79206f66207065722077616c6c65742060008201527f616d6f756e740000000000000000000000000000000000000000000000000000602082015250565b7f7175616e74697479206f6620746f6b656e732063616e6e6f74206265206c657360008201527f73207468616e206f7220657175616c20746f2030000000000000000000000000602082015250565b7f4f776e61626c653a206e6577206f776e657220697320746865207a65726f206160008201527f6464726573730000000000000000000000000000000000000000000000000000602082015250565b7f68747470733a2f2f626166796265696332683464706c73736973796b7175726360008201527f6e6335653361346d6b326b646163376e33626e36697a69777a7832623369776f60208201527f7570692e697066732e6e667473746f726167652e6c696e6b2f00000000000000604082015250565b7f455243313135353a2061646472657373207a65726f206973206e6f742061207660008201527f616c6964206f776e657200000000000000000000000000000000000000000000602082015250565b7f455243313135353a2063616c6c6572206973206e6f7420746f6b656e206f776e60008201527f6572206f7220617070726f766564000000000000000000000000000000000000602082015250565b7f455243313135353a207472616e7366657220746f20746865207a65726f20616460008201527f6472657373000000000000000000000000000000000000000000000000000000602082015250565b7f455243313135353a20696e73756666696369656e742062616c616e636520666f60008201527f72207472616e7366657200000000000000000000000000000000000000000000602082015250565b7f2e6a736f6e000000000000000000000000000000000000000000000000000000600082015250565b7f4f776e61626c653a2063616c6c6572206973206e6f7420746865206f776e6572600082015250565b7f4d696e743a20496e636f7272656374207061796d656e74000000000000000000600082015250565b7f455243313135353a2073657474696e6720617070726f76616c2073746174757360008201527f20666f722073656c660000000000000000000000000000000000000000000000602082015250565b7f455243313135353a206163636f756e747320616e6420696473206c656e67746860008201527f206d69736d617463680000000000000000000000000000000000000000000000602082015250565b7f455243313135353a2069647320616e6420616d6f756e7473206c656e6774682060008201527f6d69736d61746368000000000000000000000000000000000000000000000000602082015250565b7f455243313135353a206d696e7420746f20746865207a65726f2061646472657360008201527f7300000000000000000000000000000000000000000000000000000000000000602082015250565b7f455243313135353a207472616e7366657220746f206e6f6e2d4552433131353560008201527f526563656976657220696d706c656d656e746572000000000000000000000000602082015250565b600060443d1015613c9857613d1b565b613ca06132e3565b60043d036004823e80513d602482011167ffffffffffffffff82111715613cc8575050613d1b565b808201805167ffffffffffffffff811115613ce65750505050613d1b565b80602083010160043d038501811115613d03575050505050613d1b565b613d12826020018501866135bb565b82955050505050505b90565b613d27816134d3565b8114613d3257600080fd5b50565b613d3e816134e5565b8114613d4957600080fd5b50565b613d55816134f1565b8114613d6057600080fd5b50565b613d6c8161353d565b8114613d7757600080fd5b5056fea26469706673582212207e5c9e5e540e05179bb090d54907df5d333884e0709ac73ccb55dea5e9f81dcf64736f6c6343000801003368747470733a2f2f626166796265696332683464706c73736973796b717572636e6335653361346d6b326b646163376e33626e36697a69777a7832623369776f7570692e697066732e6e667473746f726167652e6c696e6b2f7b69647d2e6a736f6e",
  "linkReferences": {},
  "deployedLinkReferences": {}
}